{
    "contractName": "Administration",
    "abi": [
        {
            "inputs": [],
            "stateMutability": "nonpayable",
            "type": "constructor"
        },
        {
            "anonymous": false,
            "inputs": [
                {
                    "indexed": false,
                    "internalType": "address",
                    "name": "user",
                    "type": "address"
                },
                {
                    "indexed": false,
                    "internalType": "uint256",
                    "name": "time",
                    "type": "uint256"
                }
            ],
            "name": "Block",
            "type": "event"
        },
        {
            "anonymous": false,
            "inputs": [
                {
                    "indexed": false,
                    "internalType": "address",
                    "name": "user",
                    "type": "address"
                },
                {
                    "indexed": false,
                    "internalType": "string",
                    "name": "comment",
                    "type": "string"
                }
            ],
            "name": "CreateBenefactorRequest",
            "type": "event"
        },
        {
            "anonymous": false,
            "inputs": [
                {
                    "indexed": false,
                    "internalType": "address",
                    "name": "user",
                    "type": "address"
                },
                {
                    "indexed": false,
                    "internalType": "uint256",
                    "name": "time",
                    "type": "uint256"
                }
            ],
            "name": "DeclineBenefactor",
            "type": "event"
        },
        {
            "anonymous": false,
            "inputs": [
                {
                    "indexed": false,
                    "internalType": "address",
                    "name": "user",
                    "type": "address"
                },
                {
                    "indexed": false,
                    "internalType": "uint256",
                    "name": "time",
                    "type": "uint256"
                }
            ],
            "name": "GiveBenefactor",
            "type": "event"
        },
        {
            "anonymous": false,
            "inputs": [
                {
                    "indexed": false,
                    "internalType": "address",
                    "name": "user",
                    "type": "address"
                },
                {
                    "indexed": false,
                    "internalType": "uint256",
                    "name": "time",
                    "type": "uint256"
                }
            ],
            "name": "Unblock",
            "type": "event"
        },
        {
            "inputs": [],
            "name": "administrator",
            "outputs": [
                {
                    "internalType": "address",
                    "name": "",
                    "type": "address"
                }
            ],
            "stateMutability": "view",
            "type": "function"
        },
        {
            "inputs": [
                {
                    "internalType": "uint256",
                    "name": "",
                    "type": "uint256"
                }
            ],
            "name": "benefactorRequests",
            "outputs": [
                {
                    "internalType": "string",
                    "name": "comment",
                    "type": "string"
                },
                {
                    "internalType": "string",
                    "name": "declineReason",
                    "type": "string"
                },
                {
                    "internalType": "enum Administration.BenefactorRequestStatus",
                    "name": "status",
                    "type": "uint8"
                },
                {
                    "internalType": "address",
                    "name": "sender",
                    "type": "address"
                }
            ],
            "stateMutability": "view",
            "type": "function"
        },
        {
            "inputs": [
                {
                    "internalType": "address",
                    "name": "user",
                    "type": "address"
                }
            ],
            "name": "blockUser",
            "outputs": [],
            "stateMutability": "nonpayable",
            "type": "function"
        },
        {
            "inputs": [
                {
                    "internalType": "string",
                    "name": "_comment",
                    "type": "string"
                }
            ],
            "name": "createBenefactorRequest",
            "outputs": [],
            "stateMutability": "nonpayable",
            "type": "function"
        },
        {
            "inputs": [
                {
                    "internalType": "string",
                    "name": "_reason",
                    "type": "string"
                }
            ],
            "name": "declineBenefactorToLast",
            "outputs": [],
            "stateMutability": "nonpayable",
            "type": "function"
        },
        {
            "inputs": [],
            "name": "getBenefactorRequest",
            "outputs": [
                {
                    "components": [
                        {
                            "internalType": "string",
                            "name": "comment",
                            "type": "string"
                        },
                        {
                            "internalType": "string",
                            "name": "declineReason",
                            "type": "string"
                        },
                        {
                            "internalType": "enum Administration.BenefactorRequestStatus",
                            "name": "status",
                            "type": "uint8"
                        },
                        {
                            "internalType": "address",
                            "name": "sender",
                            "type": "address"
                        }
                    ],
                    "internalType": "struct Administration.BenefactorRequest",
                    "name": "",
                    "type": "tuple"
                }
            ],
            "stateMutability": "view",
            "type": "function"
        },
        {
            "inputs": [],
            "name": "getBenefactorRequestsLength",
            "outputs": [
                {
                    "internalType": "uint256",
                    "name": "",
                    "type": "uint256"
                }
            ],
            "stateMutability": "view",
            "type": "function"
        },
        {
            "inputs": [],
            "name": "giveBenefactorToLast",
            "outputs": [],
            "stateMutability": "nonpayable",
            "type": "function"
        },
        {
            "inputs": [
                {
                    "internalType": "address",
                    "name": "",
                    "type": "address"
                }
            ],
            "name": "isBenefactorRequestSent",
            "outputs": [
                {
                    "internalType": "string",
                    "name": "comment",
                    "type": "string"
                },
                {
                    "internalType": "string",
                    "name": "declineReason",
                    "type": "string"
                },
                {
                    "internalType": "enum Administration.BenefactorRequestStatus",
                    "name": "status",
                    "type": "uint8"
                },
                {
                    "internalType": "address",
                    "name": "sender",
                    "type": "address"
                }
            ],
            "stateMutability": "view",
            "type": "function"
        },
        {
            "inputs": [
                {
                    "internalType": "address",
                    "name": "user",
                    "type": "address"
                }
            ],
            "name": "unblockUser",
            "outputs": [],
            "stateMutability": "nonpayable",
            "type": "function"
        },
        {
            "inputs": [
                {
                    "internalType": "address",
                    "name": "",
                    "type": "address"
                }
            ],
            "name": "userStatus",
            "outputs": [
                {
                    "internalType": "enum UserStatus",
                    "name": "",
                    "type": "uint8"
                }
            ],
            "stateMutability": "view",
            "type": "function"
        }
    ],
    "bytecode": "608080604052346026575f80546001600160a01b03191633179055610d2b908161002b8239f35b5f80fdfe60806040526004361015610011575f80fd5b5f3560e01c80630221fe3e146106a0578063225d29a11461065857806339d319e5146105c35780633da013251461052a5780633ff6f9751461043e57806345d4bd50146102e957806347c887091461023b5780634babadd4146101d25780638b84342b146100da578063cb32bc59146100bd5763f53d0a8e14610092575f80fd5b346100b9575f3660031901126100b9575f546040516001600160a01b039091168152602090f35b5f80fd5b346100b9575f3660031901126100b9576020600254604051908152f35b346100b9576100e836610879565b6100fc60018060a01b035f54163314610921565b6002545f1981019081116101be577f397190b10501f68f6e5b8b6b09a29a0ae4fcff9fa0bbdd6f458b87d367bc0cfa9161019861014461013e6101b9946108f1565b5061097d565b61014c610a35565b6060815191019260018060a01b03845116906040519261016b84610712565b8352602083015260026040830152606082015260018060a01b038351165f52600360205260405f20610aa9565b51604080516001600160a01b03909216825242602083015290918291820190565b0390a1005b634e487b7160e01b5f52601160045260245ffd5b346100b95760203660031901126100b9576004356002548110156100b9576101f9906108f1565b5061020381610750565b90610237600261021560018401610750565b920154604051938493600883901c6001600160a01b03169260ff169185610832565b0390f35b346100b9575f3660031901126100b9575f606060405161025a81610712565b81815281602082015282604082015201526002545f1981019081116101be5761013e610285916108f1565b6040518091602082526102bd6102a782516080602086015260a08501906107f0565b6020830151848203601f190160408601526107f0565b9060408101516102cc81610814565b60608481019190915201516001600160a01b031660808301520390f35b346100b9576102f736610879565b335f9081526003602052604090206002015460081c6001600160a01b03166103f95760405161032581610712565b81815260405161033660208261072e565b5f815260208201525f6040820152336060820152335f52600360205261035f8160405f20610aa9565b600254680100000000000000008110156103e55780600161038392016002556108f1565b9290926103d2576103b86101b9927fa4ef7b21c63abcbb0839cf5bbaf025e949977a7c7c8e2d2178bf8e4c1ff8a4dd94610aa9565b6040519182913383526040602084015260408301906107f0565b634e487b7160e01b5f525f60045260245ffd5b634e487b7160e01b5f52604160045260245ffd5b60405162461bcd60e51b815260206004820152601760248201527f5265717565737420697320616c72656164792073656e740000000000000000006044820152606490fd5b346100b9575f3660031901126100b95761046260018060a01b035f54163314610921565b6002545f1981019081116101be576101b96104a061013e7f0cf5bccf3474affa18e7b31059db1548dd246f629d8dff0412e6f9382134c99f936108f1565b6060810180516001600160a01b03165f908152600160205260409020805460ff1916600217905590610198906104d4610a35565b5160018060a01b03835116604051916104ec83610712565b82526040516104fc60208261072e565b5f8152602083015260016040830152606082015260018060a01b038351165f52600360205260405f20610aa9565b346100b95760203660031901126100b9576004356001600160a01b0381168082036100b9577fddeaed51ebf47e05b96107ea9674c783c5e56007595eea435e7393676c99bc1a916101b99161058960018060a01b035f54163314610921565b5f90815260016020818152604092839020805460ff191690921790915581516001600160a01b039093168352429083015290918291820190565b346100b95760203660031901126100b9576004356001600160a01b0381168082036100b9577f4bd643b95a1a92f845f80d7d4da7634aa7ecfa731f413b69a32218cc1522edfe916101b99161062260018060a01b035f54163314610921565b5f90815260016020908152604091829020805460ff1916905581516001600160a01b039093168352429083015290918291820190565b346100b95760203660031901126100b9576004356001600160a01b038116908190036100b9575f526001602052602060ff60405f2054166040519061069c81610814565b8152f35b346100b95760203660031901126100b9576004356001600160a01b038116908190036100b9575f52600360205260405f2061020381610750565b90600182811c92168015610708575b60208310146106f457565b634e487b7160e01b5f52602260045260245ffd5b91607f16916106e9565b6080810190811067ffffffffffffffff8211176103e557604052565b90601f8019910116810190811067ffffffffffffffff8211176103e557604052565b9060405191825f825492610763846106da565b80845293600181169081156107ce575060011461078a575b506107889250038361072e565b565b90505f9291925260205f20905f915b8183106107b2575050906020610788928201015f61077b565b6020919350806001915483858901015201910190918492610799565b90506020925061078894915060ff191682840152151560051b8201015f61077b565b805180835260209291819084018484015e5f828201840152601f01601f1916010190565b6003111561081e57565b634e487b7160e01b5f52602160045260245ffd5b9294939060609261084e61085c926080875260808701906107f0565b9085820360208701526107f0565b9461086681610814565b60408401526001600160a01b0316910152565b60206003198201126100b95760043567ffffffffffffffff81116100b957816023820112156100b95780600401359067ffffffffffffffff82116103e557604051926108cf601f8401601f19166020018561072e565b828452602483830101116100b957815f92602460209301838601378301015290565b60025481101561090d5760025f52600360205f20910201905f90565b634e487b7160e01b5f52603260045260245ffd5b1561092857565b60405162461bcd60e51b815260206004820152602760248201527f4f6e6c79207468652061646d696e2063616e20706572666f726d20746869732060448201526630b1ba34b7b71760c91b6064820152608490fd5b9060405161098a81610712565b60606002829461099981610750565b84526109a760018201610750565b6020850152015460ff81166109bb81610814565b604084015260081c6001600160a01b0316910152565b8181106109dc575050565b5f81556001016109d1565b6109f181546106da565b90816109fb575050565b81601f5f9311600114610a0c575055565b81835260208320610a2891601f0160051c8101906001016109d1565b8082528160208120915555565b6002548015610a95575f190160025481101561090d5760025f52600381027f405787fa12a823e0f2b7631cc41b3ba8828b3321ca811111fa75cd3aa3bb5ace01600281610a825f936109e7565b610a8e600182016109e7565b0155600255565b634e487b7160e01b5f52603160045260245ffd5b9190805192835167ffffffffffffffff81116103e557610ac982546106da565b601f8111610cc5575b50602094601f8211600114610c6457610b059293949582915f92610bb7575b50508160011b915f199060031b1c19161790565b81555b60018101602083015180519067ffffffffffffffff82116103e557610b2d83546106da565b601f8111610c29575b50602090601f8311600114610bc2579180610b6a9260029695945f92610bb75750508160011b915f199060031b1c19161790565b90555b0190604081015190610b7e82610814565b610b8782610814565b60ff8354916060610100600160a81b0391015160081b169216906affffffffffffffffffffff60a81b1617179055565b015190505f80610af1565b90601f19831691845f52815f20925f5b818110610c11575091600193918560029897969410610bf9575b505050811b019055610b6d565b01515f1960f88460031b161c191690555f8080610bec565b92936020600181928786015181550195019301610bd2565b610c5490845f5260205f20601f850160051c81019160208610610c5a575b601f0160051c01906109d1565b5f610b36565b9091508190610c47565b601f19821695835f52805f20915f5b888110610cad57508360019596979810610c95575b505050811b018155610b08565b01515f1960f88460031b161c191690555f8080610c88565b91926020600181928685015181550194019201610c73565b610cef90835f5260205f20601f840160051c81019160208510610c5a57601f0160051c01906109d1565b5f610ad256fea26469706673582212209a99a549f30f98ac7dbdd94d87cc25d2c4180d11e9b959967556acef2a4e842964736f6c634300081c0033",
    "sourcePath": "d:/git/MaxFundraiser-smart-contract/contracts/Administration.sol",
    "compiler": {
        "name": "solc",
        "version": "0.8.28+commit.7893614a"
    },
    "functionHashes": {
        "administrator()": "f53d0a8e",
        "benefactorRequests(uint256)": "4babadd4",
        "blockUser(address)": "3da01325",
        "createBenefactorRequest(string)": "45d4bd50",
        "declineBenefactorToLast(string)": "8b84342b",
        "getBenefactorRequest()": "47c88709",
        "getBenefactorRequestsLength()": "cb32bc59",
        "giveBenefactorToLast()": "3ff6f975",
        "isBenefactorRequestSent(address)": "0221fe3e",
        "unblockUser(address)": "39d319e5",
        "userStatus(address)": "225d29a1"
    },
    "gasEstimates": {
        "creation": {
            "codeDepositCost": "674200",
            "executionCost": "24950",
            "totalCost": "699150"
        },
        "external": {
            "administrator()": "2488",
            "benefactorRequests(uint256)": "infinite",
            "blockUser(address)": "28078",
            "createBenefactorRequest(string)": "infinite",
            "declineBenefactorToLast(string)": "infinite",
            "getBenefactorRequest()": "infinite",
            "getBenefactorRequestsLength()": "2446",
            "giveBenefactorToLast()": "infinite",
            "isBenefactorRequestSent(address)": "infinite",
            "unblockUser(address)": "28044",
            "userStatus(address)": "2444"
        }
    }
}